:100000000C9462000C948A000C948A000C948A0070
:100010000C948A000C948A000C948A000C948A0038
:100020000C948A000C948A000C948A000C948A0028
:100030000C948A000C948A000C948A000C948A0018
:100040000C947F080C948A000C944D080C9427089B
:100050000C948A000C948A000C948A000C948A00F8
:100060000C94C9080C948A000000000023002600AC
:10007000290000000008000201000003040700003E
:1000800000000000000000000000250028002B00F8
:1000900000000000240027002A00040404040404D3
:1000A0000404020202020202030303030303010227
:1000B00004081020408001020408102001020408F6
:1000C0001020200A11241FBECFEFD8E0DEBFCDBF25
:1000D00011E0A0E0B1E0ECE1F8E102C005900D9282
:1000E000AA34B107D9F724E0AAE4B1E001C01D9217
:1000F000AD30B207E1F710E0C2E6D0E004C02197CE
:10010000FE010E94060CC136D107C9F70E94880A79
:100110000C940C0C0C9400000895CF93DF93AC0169
:10012000E0910D02F0910E023097F1F090910C02E7
:1001300080910B029817C0F090E0292F30E026172D
:10014000370754F4D901A459BE4F240F351FE901D4
:1001500028812C939F5FF1CF10920C0260930B02C9
:10016000CB01DF91CF910994DF91CF910895AF92A8
:10017000BF92CF92DF92EF92FF920F931F93CF9394
:10018000DF936C017B018B01040F151FEB015E01F6
:10019000AE18BF08C017D10759F06991D601ED918B
:1001A000FC910190F081E02DC6010995892B79F72A
:1001B000C501DF91CF911F910F91FF90EF90DF90DC
:1001C000CF90BF90AF900895FC01538D448D252FA3
:1001D00030E0842F90E0821B930B541710F0CF96E1
:1001E000089501970895FC01918D828D981761F013
:1001F000A28DAE0FBF2FB11D5D968C91928D9F5F2A
:100200009F73928F90E008958FEF9FEF0895FC0108
:10021000918D828D981731F0828DE80FF11D858DBB
:1002200090E008958FEF9FEF0895FC01918D228D4E
:10023000892F90E0805C9F4F821B91098F739927D3
:10024000089584E192E00E94150121E0892B09F4D0
:1002500020E0822F089580E090E0892B29F00E9411
:10026000210181110C9400000895FC01A48DA80FB8
:10027000B92FB11DA35ABF4F2C91848D90E00196E8
:100280008F739927848FA689B7892C93A089B18908
:100290008C91837080648C93938D848D981306C0A9
:1002A0000288F389E02D80818F7D80830895EF920D
:1002B000FF920F931F93CF93DF93EC0181E0888F20
:1002C0009B8D8C8D98131AC0E889F989808185FFF0
:1002D00015C09FB7F894EE89FF896083E889F98992
:1002E00080818370806480839FBF81E090E0DF9194
:1002F000CF911F910F91FF90EF900895F62E0B8DE7
:1003000010E00F5F1F4F0F731127E02E8C8D8E11A1
:100310000CC00FB607FCFACFE889F989808185FF08
:10032000F5CFCE010E943501F1CFEB8DEC0FFD2F03
:10033000F11DE35AFF4FF0829FB7F8940B8FEA89C3
:10034000FB8980818062CFCFCF93DF93EC01888DD2
:100350008823B9F0AA89BB89E889F9898C9185FD40
:1003600003C0808186FD0DC00FB607FCF7CF8C91CE
:1003700085FFF2CF808185FFEDCFCE010E94350150
:10038000E9CFDF91CF910895833081F028F4813057
:1003900099F08230A9F008958730A9F08830C9F02B
:1003A0008430B1F4809180008F7D03C08091800003
:1003B0008F7780938000089584B58F7784BD0895EA
:1003C00084B58F7DFBCF8091B0008F778093B00094
:1003D00008958091B0008F7DF9CF1F93CF93DF9365
:1003E000282F30E0F901EE58FF4F8491F901E255D2
:1003F000FF4FD491F901E656FF4FC491CC23A9F0E9
:10040000162F81110E94C401EC2FF0E0EE0FFF1FA8
:10041000EA57FF4FA591B4918FB7F894EC91111161
:1004200008C0D095DE23DC938FBFDF91CF911F9161
:100430000895DE2BF8CF3FB7F89480910102909198
:100440000202A0910302B091040226B5A89B05C048
:100450002F3F19F00196A11DB11D3FBFBA2FA92F43
:10046000982F8827BC01CD01620F711D811D911D40
:1004700042E0660F771F881F991F4A95D1F70895AC
:100480002FB7F8946091FD017091FE018091FF01FA
:10049000909100022FBF08952091B201260F3327BB
:1004A000331F21323105ECF42091D601FC0190E09C
:1004B00080E0243069F082E00895A091B20121919A
:1004C000AC014E565E4FA40FB52FB11D2C93019673
:1004D000861798F38091B201680F6093B20180E0B3
:1004E000089581E008951092D60181E08093D801AB
:1004F0001092D70161E082E10E94ED0161E083E1A9
:100500000E94ED01E9EBF0E080818E7F80838081A5
:100510008D7F808388E48093B80085E48093BC005D
:100520000895CF93DF9391E0909391018823B9F0E0
:10053000C091B800D091BA008091BC008A7B8093B2
:10054000BC0060E082E10E94ED0160E083E10E9476
:10055000ED010E947302D093BA00C093B800DF91FE
:10056000CF9108950895E0910C0280910B02E81755
:1005700030F4F0E0E459FE4F808190E008958FEF71
:100580009FEF089590910C0280910B022FEF3FEFA7
:10059000981748F4E92FF0E0E459FE4F208130E04D
:1005A0009F5F90930C02C901089580910B02909176
:1005B0000C02891B990B0895CF92DF92EF92FF9264
:1005C0000F931F93CF93DF937C01CB018A0120917E
:1005D0006B01222389F0EB016B01C40ED51ECC15F3
:1005E000DD0569F06991D701ED91FC910190F081F1
:1005F000E02DC7010995F3CF642F0E944C02C8017A
:10060000DF91CF911F910F91FF90EF90DF90CF90EE
:100610000895CF93DF931F92CDB7DEB76983209102
:100620006B012223F9F020910902203258F021E0D9
:1006300030E0FC013383228390E080E00F90DF9173
:10064000CF91089580910A02E82FF0E0E55BFE4F1C
:10065000998190838F5F80930A028093090281E0E1
:1006600090E0ECCF61E0CE0101960E944C02F7CF02
:1006700090E080E008958F929F92AF92BF92EF92A8
:10068000FF920F931F93CF93DF93FC012081318161
:1006900037FD40C0EC013327F901EE58FF4F84913C
:1006A000F901E255FF4F0491F901E656FF4F14910D
:1006B000112309F43AC081110E94C401E12FF0E036
:1006C000EE0FFF1FE859FF4FA591B491EC910E2357
:1006D00091E080E009F490E0092F182FE884F98474
:1006E0000E9440024B015C018AA99BA9ACA9BDA94B
:1006F000B501A401481B590B6A0B7B0B8EA59FA566
:100700008230910509F475C09CF4009729F181307D
:10071000910591F1DF91CF911F910F91FF90EF9093
:10072000BF90AF909F908F90089510E000E0D6CFDB
:100730008630910509F4BDC08730910509F4D8C011
:100740008330910539F7E016F10609F071C099ABD5
:1007500088AB81E090E027C0E016F106D9F619AA2F
:1007600018AA81E090E09FA78EA78AAA9BAAACAAAC
:10077000BDAA1FAA1EAACECFE016F106D9F00A81A3
:100780001B8130E020E0401751076207730738F4FF
:1007900028A939A999AB88AB3FA72EA7BBCF99ABA6
:1007A00088AB82E090E09FA78EA78AAA9BAAACAAFA
:1007B000BDAAB0CF8E819F81B0E0A0E084179507DD
:1007C000A607B70708F0A6CFEC8DFD8D309709F08E
:1007D0000995EE8DFF8D309719F088A199A10995A3
:1007E0008EA59FA599AB88AB86E090E09FA78EA7CA
:1007F00091CF8A809B80B12CA12CE016F10689F460
:10080000481559056A057B0518F28EA99FA901961E
:100810009FAB8EAB82E090E099AB88AB83E090E039
:10082000E5CF481559056A057B0508F473CFEDCF70
:100830008EA99FA90C811D8130E020E004171507C7
:100840002607370730F028AD39AD2817390709F0EA
:1008500061CF81309105B9F4EA85FB85309709F0C5
:100860000995EC85FD85309719F08E859F85099552
:100870001FA61EA619AA18AA1FAA1EAA1AAA1BAA50
:100880001CAA1DAA47CF029761F4E889F98930971D
:1008900009F00995EA89FB89309751F38C899D8984
:1008A000E6CFEE89FF89309709F00995E88DF98D3B
:1008B000F3CFE016F10629F099AB88AB87E090E022
:1008C00072CFE8A5F9A5309709F00995EAA5FBA52F
:1008D000309709F41FCF8CA59DA5DF91CF911F9173
:1008E0000F91FF90EF90BF90AF909F908F900994E1
:1008F0008A809B80B12CA12CE016F10699F4481552
:1009000059056A057B0508F443CFEAA1FBA130979E
:1009100009F00995ECA1FDA1309709F4A9CF8EA1AA
:100920009FA1A5CF481559056A057B0508F4F2CEAD
:10093000ECCF0F931F93CF93DF93EC018A899B89B0
:10094000AC89BD89892B8A2B8B2B11F41D821C82CB
:100950008C819D818130910541F0029709F43FC05F
:10096000DF91CF911F910F9108950E9440020E894F
:100970001F89288D398D601B710B820B930B0E859F
:100980001F8528893989601771078207930740F30B
:1009900082E090E09D838C8361E08A819B81892B3A
:1009A00009F060E0862F90E09B838A8388810E9413
:1009B000ED010E9440026E8B7F8B888F998F8A8910
:1009C0009B89AC89BD890097A105B10549F20197C2
:1009D000A109B1098A8B9B8BAC8BBD8BC1CF8A815E
:1009E0009B81892BC9F08A819B81019709F0B8CF3F
:1009F0000E9440020E891F89288D398D601B710B62
:100A0000820B930B0E811F81288539856017710732
:100A10008207930708F6A4CF0E9440020E891F891F
:100A2000288D398D601B710B820B930B0A851B85FA
:100A30002C853D856017710782079307A0F2ACCF24
:100A40000F931F93CF93DF93EC010E831F832887AF
:100A500039874A875B876C877D871E861F86188A41
:100A6000198A8FEF9FEFDC018A8B9B8BAC8BBD8B40
:100A70008C819D81892B51F481E090E09D838C8352
:100A80000E9440026E8B7F8B888F998FDF91CF9170
:100A90001F910F910895FC01158214821382128216
:100AA00060E080810C94ED01CF93DF93DC0182E361
:100AB00090E013969C938E93129780E991E015969F
:100AC0009C938E93149780E293E017969C938E9359
:100AD00016971B961C921E921A971D961C921E9298
:100AE0001C971F961C921E921E9751961C921E9246
:100AF000509753961C921E92529755961C921E9296
:100B0000549757961C921E92569759961C921E9275
:100B100058975B961C921E925A975D961C921E9255
:100B20005C975F961C921E925E9791961C921E9205
:100B3000909793961C921E92929795961C921E9255
:100B4000949799961C921E9298979B961C921E922F
:100B50009A979D961C921E929C979F961C921E920D
:100B60009E97D1961C921E92D09781E090E0D996E4
:100B70009C938E93D89711967C936E9319961C92A2
:100B80001E921897FB01E255FF4F849166567F4FE6
:100B9000FB0164916623C1F070E0660F771FFB01D3
:100BA000E057FF4FC591D491FB01EA57FF4FA59144
:100BB000B4912FB7F8943881982F90959323988308
:100BC000EC91E82BEC932FBFDF91CF910895FC01BE
:100BD00001900020E9F73197AF01481B590BBC0188
:100BE00084E192E00C94B7008F929F92AF92BF92F3
:100BF000CF92DF92EF92FF920F931F93CF93DF93E9
:100C0000CDB7DEB7A1970FB6F894DEBF0FBECDBF4C
:100C10006C01990FEE08FF08F7FE47C06DE284E112
:100C200092E00E9457018C0122273327A9012C1939
:100C30003D094E095F0919A2CE0181967C019AE017
:100C4000892E912CA12CB12CCA01B901A5019401C6
:100C50000E94E40B605DF70162937F01211531056D
:100C60004105510589F790E080E0309719F0CF01F8
:100C70000E94E705080F191F84E291E00E94E70532
:100C8000800F911FA1960FB6F894DEBF0FBECDBFA7
:100C9000DF91CF911F910F91FF90EF90DF90CF9058
:100CA000BF90AF909F908F900895A701960119A2D1
:100CB0008E010F5D1F4F8AE0C82ED12CE12CF12C44
:100CC000CA01B901A70196010E94E40B605DF80119
:100CD00062938F01211531054105510589F7309740
:100CE00029F0CF010E94E7058C01C6CF10E000E09B
:100CF000C3CFCF92DF92EF92FF920F931F93CF93C8
:100D000081E080936B0110924A0110920A021092C6
:100D100009026091100281EB92E00E940903C091E8
:100D20000902C13208F090C00E941B026B017C01D5
:100D30008091D601811163C082E08093D60181E069
:100D40008093D8018FEF8093D5011092FA01C09360
:100D5000F901ABE4B1E0E9EDF1E080E0C8138FC048
:100D60001092FB018091FB018093FB018091D701E0
:100D7000813009F088C01092D7010E941B026B01DC
:100D80007C018091FB018093BB0080918D0190914B
:100D90008E01A0918F01B0919001892B8A2B8B2B12
:100DA00099F00E941B0200918D0110918E012091FB
:100DB0008F01309190016C197D098E099F090617EA
:100DC000170728073907E0F18091BC0083FDD9CFD0
:100DD00085EC8093BC000E941B026B017C0180911A
:100DE000D601823009F451C08091D5018F3F61F165
:100DF0008091D501803241F18091D50125C080914B
:100E00008D0190918E01A0918F01B0919001892B5D
:100E10008A2B8B2B09F48CCF0E941B0200918D0131
:100E200010918E0120918F01309190016C197D09F4
:100E30008E099F09061717072807390708F078CF8A
:100E400080918C010E94910210920A021092090274
:100E500010926B0187E291E00E94E70580911002F9
:100E6000909111020E94F40581E080930F02CF91CE
:100E70001F910F91FF90EF90DF90CF9008959D917B
:100E800091938F5F6BCF85EEA4CF80918D01909170
:100E90008E01A0918F01B0919001892B8A2B8B2B11
:100EA00009F49DCF0E941B0200918D0110918E01CB
:100EB00020918F01309190016C197D098E099F0955
:100EC000061717072807390708F089CFB9CF80918F
:100ED0001002909111029C012150310923303105FB
:100EE00088F00597029770F081E090E090931302EC
:100EF0008093120284E090E090931102809310029C
:100F00000C94790608950C946707809110029091D3
:100F100011029C01215031092230310588F00497DB
:100F2000039770F081E090E0909313028093120297
:100F300083E090E090931102809310020C94790664
:100F4000089580911002909111028130910589F0ED
:100F50000397049770F081E090E0909313028093E0
:100F6000120282E090E090931102809310020C94A0
:100F700079060895809110029091110202970597C9
:100F800060F081E090E090931302809312029093BE
:100F90001102809310020C947906089581EB92E07F
:100FA0000E94C20290931302809312028EE291E09B
:100FB0000E94E70580911202909113020E94F405AD
:100FC00080911202909113028530910524F0909344
:100FD00011028093100281E080930F02089585ED45
:100FE0008093BC0080918D0190918E01A0918F0122
:100FF000B09190010796A11DB11D23E0B695A7956C
:10100000979587952A95D1F72091BC0024FD03C0C0
:101010001092D601089540918D0150918E016091FA
:101020008F0170919001452B462B472B69F3009758
:10103000A105B10541F025E32A95F1F700000197DC
:10104000A109B109E1CF80918C010C9491021F920A
:101050000F920FB60F9211242F933F934F935F93EC
:101060006F937F938F939F93AF93BF93EF93FF9370
:1010700084E192E00E943501FF91EF91BF91AF9121
:101080009F918F917F916F915F914F913F912F91A0
:101090000F900FBE0F901F9018951F920F920FB6D2
:1010A0000F9211242F938F939F93EF93FF93E091CF
:1010B0002402F09125028081E0912A02F0912B0216
:1010C00082FD1BC0908180912D028F5F8F732091D4
:1010D0002E02821741F0E0912D02F0E0EC5EFD4F10
:1010E000958F80932D02FF91EF919F918F912F917A
:1010F0000F900FBE0F901F9018958081F4CF1F9214
:101100000F920FB60F9211242F933F938F939F93BB
:10111000AF93BF938091FD019091FE01A091FF01DB
:10112000B09100023091FC0123E0230F2D3758F5D8
:101130000196A11DB11D2093FC018093FD019093A8
:10114000FE01A093FF01B0930002809101029091F3
:101150000202A0910302B09104020196A11DB11DEB
:101160008093010290930202A0930302B0930402C1
:10117000BF91AF919F918F913F912F910F900FBE93
:101180000F901F90189526E8230F0296A11DB11D00
:10119000D2CF1F920F920FB60F9211242F933F932D
:1011A0004F935F936F937F938F939F93AF93BF936F
:1011B000EF93FF938091B900887F803609F44AC08D
:1011C000F0F5883209F4A7C018F5803109F49BC006
:1011D000B8F4882309F4F9C0883009F494C0FF9169
:1011E000EF91BF91AF919F918F917F916F915F919F
:1011F0004F913F912F910F900FBE0F901F90189518
:10120000883109F488C0803251F78093D50114C029
:10121000803409F49DC040F48033B9F38833F9F683
:101220008093D50185ECB0C0803509F485C0883540
:1012300009F496C0883499F60E94EF07D0CF883918
:1012400009F48CC038F5883729F050F4883611F04D
:10125000803729F683E08093D6011092D40157C0DD
:10126000883809F47BC0803919F0803809F0B7CF8D
:101270008091D401803208F071C0E091D40181E006
:101280008E0F8093D4018091BB00F0E0EC54FE4FB0
:1012900080833DC0803B39F0E0F4803A09F479C0A6
:1012A000883A09F09CCF84E08093D6011092B30174
:1012B0001092B201E0910702F09108020995809125
:1012C000B20181110FC081E08093B20110929201AE
:1012D00009C0803C09F4A6CF883C09F4A3CF883B21
:1012E00009F07DCFE091B30181E08E0F8093B301CF
:1012F000F0E0EE56FE4F80818093BB009091B301E9
:101300008091B20129C08091FB018093BB0085ECE4
:101310008093BC0064CF9091FA018091F9019817F5
:1013200058F5E091FA0181E08E0F8093FA01F0E028
:10133000E752FE4F8081E9CFE091FA0181E08E0F04
:101340008093FA018091BB00F0E0E752FE4F80836A
:101350009091FA018091F9019817C8F285E8D8CFE9
:10136000E091FA0181E08E0F8093FA018091BB0039
:10137000F0E0E752FE4F80838091D80181115CCF6D
:1013800081E08093D70184EA8093BC001092D6015B
:1013900026CF85EC8093BC001092D6018091D401B9
:1013A000803230F4E091D401F0E0EC54FE4F108232
:1013B0006091D40170E0E0910502F091060284EBA7
:1013C00091E009951092D4010ACF1092D50134CF43
:1013D000FC0171836083138212821582148216824B
:1013E00017821086118612861386148615868FEF53
:1013F0009FEFDC01828B938BA48BB58B168A178AA7
:10140000108E118EFB01E255FF4F849166567F4F7F
:10141000FB016491662399F070E0660F771FFB0172
:10142000E057FF4FA591B491FB01EA57FF4F25917B
:1014300034919FB7F894EC91E82BEC939FBF0895FB
:10144000E4E1F2E01382128288EE93E0A0E0B0E0E3
:1014500084839583A683B78324E031E0318320839E
:1014600025EC30E03587248724EC30E03787268769
:1014700020EC30E0318B208B21EC30E0338B228B61
:1014800022EC30E0358B248B26EC30E0378B268B3A
:10149000118E128E138E148EE1EBF2E01382128203
:1014A00084839583A683B78386E191E091838083CB
:1014B00065E070E083EF93E00E94E80964E070E08B
:1014C00089ED93E00E94E80963E070E08FEB93E020
:1014D0000E94E80962E070E085EA93E00E94E80972
:1014E0006AE070E08BE693E00E9454056BE070E0E8
:1014F00081E393E00E9454056CE070E087EF92E096
:101500000E9454056DE070E08DEB92E00C94540560
:10151000789484B5826084BD84B5816084BD85B5CE
:10152000826085BD85B5816085BD80916E008160DA
:1015300080936E0010928100809181008260809380
:101540008100809181008160809381008091800082
:101550008160809380008091B10084608093B100AD
:101560008091B00081608093B00080917A008460A7
:1015700080937A0080917A00826080937A008091D3
:101580007A00816080937A0080917A0080688093ED
:101590007A001092C1008AEB97E0909376038093D3
:1015A000750383E897E0909388038093870381EA2B
:1015B00097E090933C0380933B0385E897E09093FA
:1015C00002038093010387E697E09093C80280931B
:1015D000C702E0912402F091250282E08083E0912D
:1015E0002002F09121021082E0912202F091230268
:1015F0008FEC808310922C02E0912802F091290256
:1016000086E08083E0912602F0912702808180614C
:101610008083E0912602F091270280818860808398
:10162000E0912602F0912702808180688083E0911A
:101630002602F091270280818F7D808310920C0218
:1016400010920B0210920A02109209020E94730279
:101650008CE890E090930802809307028DE890E078
:10166000909306028093050282E18093BA008EEC8B
:1016700097E090930E0280930D0289E391E00E941F
:10168000E70584E291E00E94E70580E0E82E80E033
:10169000F82EC0911202D09113022097A1F410925B
:1016A00011021092100283EF93E00E944B0589ED26
:1016B00093E00E944B058FEB93E00E944B0585EA77
:1016C00093E00E944B0580910F02882309F46BC0C0
:1016D00080911002909111028330910509F452C05B
:1016E00044F48130910509F10297D9F110920F026B
:1016F0002CC008EC10E020E030E048EC50E060E066
:1017000070E08630910554F00CE211E020E030E00A
:101710004CE251E060E070E0069741F785EA93E023
:101720000E94200585EA93E00EC008EC10E020E05E
:1017300030E048EC50E060E070E083EF93E00E941E
:10174000200583EF93E00E949904E114F10409F469
:10175000A0CF0E942101882309F49BCF0E940000A2
:1017600098CF219761F404E610E020E030E044E6F1
:1017700050E060E070E089ED93E00E94200589ED83
:1017800093E0E1CF219761F404E610E020E030E03F
:1017900044E650E060E070E08FEB93E00E942005AB
:1017A0008FEB93E0D0CF8BE693E00E943B0381E385
:1017B00093E00E943B0387EF92E00E943B038DEB96
:1017C00092E00E943B03C1CFA1E21A2EAA1BBB1BD1
:1017D000FD010DC0AA1FBB1FEE1FFF1FA217B307FD
:1017E000E407F50720F0A21BB30BE40BF50B661F13
:1017F000771F881F991F1A9469F7609570958095D7
:1018000090959B01AC01BD01CF010895EE0FFF1F24
:0C1810000590F491E02D0994F894FFCFAE
:10181C00000000005701B700E400A4011501F3001B
:10182C000701000000000903DC023803B202D502F4
:10183C00C202B3020D0A0073656E743A2000726521
:10184C006365697665643A200057656C636F6D65F6
:0A185C0020746F20534C41564500E4
:00000001FF
