:100000000C9462000C948A000C948A000C948A0070
:100010000C948A000C948A000C948A000C948A0038
:100020000C948A000C948A000C948A000C948A0028
:100030000C948A000C948A000C948A000C948A0018
:100040000C9473060C948A000C9441060C941B06C5
:100050000C948A000C948A000C948A000C948A00F8
:100060000C94BD060C948A000000000024002700B8
:100070002A0000000000250028002B0000000000DE
:1000800023002600290004040404040404040202DA
:100090000202020203030303030301020408102007
:1000A0004080010204081020010204081020000012
:1000B0000008000201000003040700000000000027
:1000C0000000DC0711241FBECFEFD8E0DEBFCDBF9C
:1000D00012E0A0E0B1E0E6E1FAE102C005900D9285
:1000E000A430B107D9F723E0A4E0B2E001C01D922B
:1000F000AD3BB207E1F710E0C2E6D0E004C02197C3
:10010000FE010E94030DC136D107C9F70E9466089F
:100110000C94090D0C940000809177029091780264
:10012000009751F485E090E09093780280937702F5
:1001300081E080937D0208958530910519F486E071
:1001400090E0F2CF9C01215031092430310510F0AC
:10015000069771F710927802109277021092760249
:1001600010927502E5CF0895CF93DF93AC01E09133
:100170007302F09174023097F1F0909172028091C5
:1001800071029817C0F090E0292F30E0261737074A
:1001900054F4D901AC5FBD4F240F351FE90128810C
:1001A0002C939F5FF1CF1092720260937102CB018A
:1001B000DF91CF910994DF91CF910895AF92BF92D3
:1001C000CF92DF92EF92FF920F931F93CF93DF9323
:1001D0006C017B018B01040F151FEB015E01AE1852
:1001E000BF08C017D10759F06991D601ED91FC9174
:1001F0000190F081E02DC6010995892B79F7C501A1
:10020000DF91CF911F910F91FF90EF90DF90CF90F2
:10021000BF90AF900895FC01538D448D252F30E0A1
:10022000842F90E0821B930B541710F0CF96089503
:1002300001970895FC01918D828D981761F0A28D30
:10024000AE0FBF2FB11D5D968C91928D9F5F9F73F6
:10025000928F90E008958FEF9FEF0895FC01918DAC
:10026000828D981731F0828DE80FF11D858D90E019
:1002700008958FEF9FEF0895FC01918D228D892FB6
:1002800090E0805C9F4F821B91098F73992708959E
:100290008EEC92E00E943C0121E0892B09F420E0E1
:1002A000822F089580E090E0892B29F00E94480178
:1002B00081110C9400000895FC01A48DA80FB92FA2
:1002C000B11DA35ABF4F2C91848D90E001968F737E
:1002D0009927848FA689B7892C93A089B1898C919D
:1002E000837080648C93938D848D981306C00288EC
:1002F000F389E02D80818F7D80830895EF92FF92B6
:100300000F931F93CF93DF93EC0181E0888F9B8D38
:100310008C8D98131AC0E889F989808185FF15C0F2
:100320009FB7F894EE89FF896083E889F989808115
:100330008370806480839FBF81E090E0DF91CF91E4
:100340001F910F91FF90EF900895F62E0B8D10E006
:100350000F5F1F4F0F731127E02E8C8D8E110CC075
:100360000FB607FCFACFE889F989808185FFF5CFC0
:10037000CE010E945C01F1CFEB8DEC0FFD2FF11D42
:10038000E35AFF4FF0829FB7F8940B8FEA89FB89FD
:1003900080818062CFCFCF93DF93EC01888D88235B
:1003A000B9F0AA89BB89E889F9898C9185FD03C0D8
:1003B000808186FD0DC00FB607FCF7CF8C9185FFBD
:1003C000F2CF808185FFEDCFCE010E945C01E9CFA5
:1003D000DF91CF910895833081F028F4813099F036
:1003E0008230A9F008958730A9F08830C9F08430B0
:1003F000B1F4809180008F7D03C0809180008F7761
:1004000080938000089584B58F7784BD089584B566
:100410008F7DFBCF8091B0008F778093B0000895DF
:100420008091B0008F7DF9CF1F93CF93DF93282F5A
:1004300030E0F901E255FF4F8491F901E656FF4F94
:10044000D491F901EA57FF4FC491CC23A9F0162F9C
:1004500081110E94EB01EC2FF0E0EE0FFF1FEE5830
:10046000FF4FA591B4918FB7F894EC91111108C08A
:10047000D095DE23DC938FBFDF91CF911F9108953C
:10048000DE2BF8CFCF93DF9390E0FC01E656FF4FD1
:1004900024918A579F4FFC0184918823C9F090E0F2
:1004A000880F991FFC01E859FF4FA591B491FC01F9
:1004B000EE58FF4FC591D49161110DC09FB7F894CC
:1004C0008C91209582238C938881282328839FBF39
:1004D000DF91CF910895623051F49FB7F8943C9129
:1004E000822F809583238C93E8812E2BEFCF8FB7BB
:1004F000F894EC912E2B2C938FBFEACF3FB7F89452
:100500008091690290916A02A0916B02B0916C0295
:1005100026B5A89B05C02F3F19F00196A11DB11D5E
:100520003FBFBA2FA92F982F8827BC01CD01620F9A
:10053000711D811D911D42E0660F771F881F991F55
:100540004A95D1F708958F929F92AF92BF92CF9222
:10055000DF92EF92FF924B015C010E947E026B01E1
:100560007C010E947E026C197D098E099F09683EFC
:10057000734081059105A8F321E0821A9108A10832
:10058000B10888EEC80E83E0D81EE11CF11C81146E
:100590009104A104B10429F7FF90EF90DF90CF9070
:1005A000BF90AF909F908F90089520914502260FA5
:1005B0003327331F21323105ECF42091A402FC01D2
:1005C00090E080E0243069F082E00895A091450237
:1005D0002191AC014B5D5D4FA40FB52FB11D2C9344
:1005E0000196861798F380914502680F6093450243
:1005F00080E0089581E008951092A40281E0809344
:10060000A30210927E0261E082E10E94140261E086
:1006100083E10E941402E9EBF0E080818E7F808309
:1006200080818D7F808388E48093B80085E4809307
:10063000BC000895CF93DF9391E090932402882328
:10064000B9F0C091B800D091BA008091BC008A7B0B
:100650008093BC0060E082E10E94140260E083E1CC
:100660000E9414020E94FC02D093BA00C093B8000A
:10067000DF91CF910895CF92DF92EF92FF920F9387
:100680001F93CF93DF93D091CD0281E0D13208F058
:100690009CC0C091CC020E947E026B017C018091C3
:1006A000A40281116CC082E08093A40281E0809357
:1006B000A3028FEF8093A2021092A102D093A00216
:1006C000ACEAB2E0E0E8F2E080E0D8138DC010922E
:1006D0007F0280917F02CC0FC82BC0937F02809154
:1006E0007E02813009F084C010927E020E947E0258
:1006F0006B017C0180917F028093BB008091A602F8
:100700009091A702A091A802B091A902892B8A2BEF
:100710008B2BA1F00E947E020091A6021091A702ED
:100720002091A8023091A9026C197D098E099F09B8
:10073000061717072807390708F442C08091BC0044
:1007400083FDD8CF85EC8093BC000E947E026B01B4
:100750007C018091A402823009F44CC08091A202F5
:100760008F3F09F469C08091A202803209F466C00B
:100770008091A202803309F463C084E026C0809196
:10078000A6029091A702A091A802B091A902892B7C
:100790008A2B8B2B09F483CF0E947E020091A60244
:1007A0001091A7022091A8023091A9026C197D092D
:1007B0008E099F09061717072807390708F06FCF1A
:1007C0008091A5020E941A0385E01092AB0210925C
:1007D000CD021092AA02DF91CF911F910F91FF904D
:1007E000EF90DF90CF9008959D9191938F5F6DCFA3
:1007F00085EEA9CF8091A6029091A702A091A802B0
:10080000B091A902892B8A2B8B2B09F4A2CF0E94CD
:100810007E020091A6021091A7022091A8023091B9
:10082000A9026C197D098E099F0906171707280769
:10083000390708F08ECFC4CF80E0C7CF82E0C5CFA4
:1008400083E0C3CF0895E091720280917102E817AE
:1008500030F4F0E0EC5FFD4F808190E008958FEF81
:100860009FEF089590917202809171022FEF3FEFF8
:10087000981748F4E92FF0E0EC5FFD4F208130E05D
:100880009F5F90937202C9010895809171029091C7
:100890007202891B990B0895CF92DF92EF92FF921B
:1008A0000F931F93CF93DF937C01CB018A0120919B
:1008B000AA02222389F0EB016B01C40ED51ECC15D0
:1008C000DD0569F06991D701ED91FC910190F0810E
:1008D000E02DC7010995F3CF642F0E94D502C8010E
:1008E000DF91CF911F910F91FF90EF90DF90CF900C
:1008F0000895CF93DF931F92CDB7DEB76983209120
:10090000AA022223F9F02091CD02203258F021E0F2
:1009100030E0FC013383228390E080E00F90DF9190
:10092000CF9108958091AB02E82FF0E0E455FD4FA0
:10093000998190838F5F8093AB028093CD0281E099
:1009400090E0ECCF61E0CE0101960E94D502F7CF96
:10095000CF93DF93EB01FC01848191E09093AA0295
:100960008093CC021092AB021092CD0268818BE68C
:1009700093E00E94790469818BE693E00E947904F8
:10098000DF91CF910C943B03CF93DF9300D0CDB791
:10099000DEB790E899838A83BE016F5F7F4F81EB5A
:1009A00093E00E94A8040F900F90DF91CF910895DB
:1009B00081E00E94C4048BE39FE10197F1F7089561
:1009C000CF93DF9300D0CDB7DEB7882381F080ECE2
:1009D00090E899838A83BE016F5F7F4F81EB93E03C
:1009E0000E94A8040F900F90DF91CF91089580E8A6
:1009F000EFCFCF93DF9300D0CDB7DEB720E42983CC
:100A00006A83BE016F5F7F4F0E94A80481E090E07F
:100A10000F900F90DF91CF910895089590E080E0BE
:100A20000895FB0101900020E9F73197AF01461BC3
:100A3000570BDC01ED91FC910280F381E02D0994CC
:100A40008F929F92AF92BF92CF92DF92EF92FF92DE
:100A50000F931F93CF93DF93CDB7DEB7A1970FB658
:100A6000F894DEBF0FBECDBF6C01990FEE08FF08F2
:100A7000F7FE4BC06DE28EEC92E00E947E018C018D
:100A800022273327A9012C193D094E095F0919A214
:100A9000CE0181967C019AE0892E912CA12CB12C5B
:100AA000CA01B901A50194010E94E10C605DF70142
:100AB00062937F01211531054105510589F790E0C9
:100AC00080E0309729F0BF018EEC92E00E94110582
:100AD000080F191F60E371E08EEC92E00E9411058F
:100AE000800F911FA1960FB6F894DEBF0FBECDBF49
:100AF000DF91CF911F910F91FF90EF90DF90CF90FA
:100B0000BF90AF909F908F900895A701960119A272
:100B10008E010F5D1F4F8AE0C82ED12CE12CF12CE5
:100B2000CA01B901A70196010E94E10C605DF801BC
:100B300062938F01211531054105510589F73097E1
:100B400039F0BF018EEC92E00E9411058C01C2CFFA
:100B500010E000E0BFCF0C9411058BE693E00E94FB
:100B60003204909378028093770263E371E08EEC15
:100B700092E00E94AB0580917702909178020E94EA
:100B8000200581E080937D02089581E08093AA0290
:100B900089E08093CC021092AB021092CD0260915A
:100BA00075028BE693E00E9479040E943B036EE39A
:100BB00071E08EEC92E00E94AB05809175029091FD
:100BC00076020C94200585ED8093BC008091A602EE
:100BD0009091A702A091A802B091A9020796A11D29
:100BE000B11D23E0B695A795979587952A95D1F7DE
:100BF0002091BC0024FD03C01092A40208954091EE
:100C0000A6025091A7026091A8027091A902452BFB
:100C1000462B472B69F30097A105B10541F025E369
:100C20002A95F1F700000197A109B109E1CF809160
:100C3000A5020C941A031F920F920FB60F92112463
:100C40002F933F934F935F936F937F938F939F93D4
:100C5000AF93BF93EF93FF938EEC92E00E945C0101
:100C6000FF91EF91BF91AF919F918F917F916F9184
:100C70005F914F913F912F910F900FBE0F901F905A
:100C800018951F920F920FB60F9211242F938F93E6
:100C90009F93EF93FF93E091DE02F091DF0280815A
:100CA000E091E402F091E50282FD1BC09081809109
:100CB000E7028F5F8F732091E802821741F0E09185
:100CC000E702F0E0E253FD4F958F8093E702FF913A
:100CD000EF919F918F912F910F900FBE0F901F90CA
:100CE00018958081F4CF1F920F920FB60F921124A6
:100CF0002F933F938F939F93AF93BF9380917902EC
:100D000090917A02A0917B02B0917C0230916802AE
:100D100023E0230F2D3758F50196A11DB11D209317
:100D200068028093790290937A02A0937B02B09339
:100D30007C028091690290916A02A0916B02B0914D
:100D40006C020196A11DB11D8093690290936A0205
:100D5000A0936B02B0936C02BF91AF919F918F9162
:100D60003F912F910F900FBE0F901F90189526E87E
:100D7000230F0296A11DB11DD2CF1F920F920FB665
:100D80000F9211242F933F934F935F936F937F9311
:100D90008F939F93AF93BF93EF93FF938091B9008D
:100DA000887F803609F44AC0F0F5883209F4A7C07C
:100DB00018F5803109F49BC0B8F4882309F4F9C010
:100DC000883009F494C0FF91EF91BF91AF919F914A
:100DD0008F917F916F915F914F913F912F910F90E4
:100DE0000FBE0F901F901895883109F488C080328B
:100DF00051F78093A20214C0803409F49DC040F4DE
:100E00008033B9F38833F9F68093A20285ECB0C041
:100E1000803509F485C0883509F496C0883499F680
:100E20000E94E305D0CF883909F48CC038F58837A3
:100E300029F050F4883611F0803729F683E080934A
:100E4000A4021092670257C0883809F47BC0803929
:100E500019F0803809F0B7CF80916702803208F02E
:100E600071C0E091670281E08E0F809367028091EC
:100E7000BB00F0E0E95BFD4F80833DC0803B39F073
:100E8000E0F4803A09F479C0883A09F09CCF84E014
:100E90008093A4021092460210924502E0916D02E6
:100EA000F0916E0209958091450281110FC081E099
:100EB000809345021092250209C0803C09F4A6CF18
:100EC000883C09F4A3CF883B09F07DCFE09146022E
:100ED00081E08E0F80934602F0E0EB5DFD4F808154
:100EE0008093BB00909146028091450229C0809179
:100EF0007F028093BB0085EC8093BC0064CF90910F
:100F0000A1028091A002981758F5E091A10281E01A
:100F10008E0F8093A102F0E0E058FD4F8081E9CF71
:100F2000E091A10281E08E0F8093A1028091BB002D
:100F3000F0E0E058FD4F80839091A1028091A002E3
:100F40009817C8F285E8D8CFE091A10281E08E0F12
:100F50008093A1028091BB00F0E0E058FD4F8083B8
:100F60008091A30281115CCF81E080937E0284EAAC
:100F70008093BC001092A40226CF85EC8093BC0025
:100F80001092A40280916702803230F4E0916702EF
:100F9000F0E0E95BFD4F10826091670270E0E09144
:100FA0006F02F091700287E492E009951092670257
:100FB0000ACF1092A20234CFEEECF2E0138212823A
:100FC00088EE93E0A0E0B0E084839583A683B783A6
:100FD00024E031E03183208325EC30E0358724871D
:100FE00024EC30E03787268720EC30E0318B208BF3
:100FF00021EC30E0338B228B22EC30E0358B248BDC
:1010000026EC30E0378B268B118E128E138E148EC9
:10101000EBE6F3E01382128284839583A683B78381
:1010200086E191E091838083E1EBF3E01382128209
:1010300088E291E0918380838EE3848380E18087DE
:1010400082E08187128688E08387E7E7F3E082E326
:1010500090E09383828380E991E09583848380E2AA
:1010600093E09783868313861286158614861786E7
:101070001686118A108A138A128A158A148A178A88
:10108000168A118E108E138E128E158E148E178E58
:10109000168E11A210A213A212A215A214A211A6BA
:1010A00010A613A612A615A614A617A616A611AA70
:1010B00010AA81E090E091AF80AF8AE090E0918348
:1010C00080831186108662E00C944202789484B585
:1010D000826084BD84B5816084BD85B5826085BD34
:1010E00085B5816085BD80916E00816080936E00C2
:1010F00010928100809181008260809381008091B4
:101100008100816080938100809180008160809364
:1011100080008091B10084608093B1008091B00024
:1011200081608093B00080917A00846080937A001F
:1011300080917A00826080937A0080917A00816049
:1011400080937A0080917A00806880937A00109270
:10115000C10061E082E00E94420261E083E00E94FF
:10116000420261E084E00E94420261E085E00E9468
:10117000420261E086E00E94420261E087E00E9454
:1011800042028CE890E09093820380938103109256
:101190007202109271021092AB021092CD020E9464
:1011A000FC0283EB90E090936E0280936D0284EBDF
:1011B00090E09093700280936F0280E18093B60379
:1011C0008091BA03823018F098E19093B603909121
:1011D000BB03992339F0813029F48091B6038460F0
:1011E0008093B60362E370E080E090E00E94A30287
:1011F0008091B60380620E94C4048BE496E4019758
:10120000F1F78091B60380620E94C40483E592E006
:101210000197F1F78091B60380620E94C404809127
:10122000B60380620E94C40484E08093B7038CE01C
:101230000E94C4040E94D804C2E0C093B80386E0B0
:101240000E94C40482E00E94C4048BE39FE10197E2
:10125000F1F788E08093BC038091B50391E090930F
:10126000AA028093CC021092AB021092CD0268E0E9
:101270008BE693E00E9479040E943B030E94D8040D
:1012800065E471E081EB93E00E94AB05E091DE0242
:10129000F091DF02C083E091DA02F091DB0210826C
:1012A000E091DC02F091DD028FEC80831092E60287
:1012B000E091E202F091E30286E08083E091E002B7
:1012C000F091E102808180618083E091E002F09101
:1012D000E102808188608083E091E002F091E10288
:1012E000808180688083E091E002F091E10280815A
:1012F0008F7D808310927202109271021092AB0265
:101300001092CD020E94FC0283EB90E090936E025B
:1013100080936D0284EB90E09093700280936F0253
:101320001092BA008DEA95E0909374028093730254
:1013300064E571E08EEC92E00E94110560E371E0DB
:101340008EEC92E00E94110590E0292E90E0392E5B
:1013500002E010E023E0E22EF12C37E0C32ED12C86
:10136000C1E0D0E080917D02882309F475C10E941C
:10137000D804809077029090780281E088169104DA
:1013800049F580E00E94E00466E671E081EB93E0BD
:101390000E94AB0581E00E94E0046AED71E081EB00
:1013A00093E00E94AB0561E085E00E94140260EDCD
:1013B00077E080E090E00E94A30210927602109203
:1013C0007502109278021092770260E085E00E9428
:1013D00014026BC092E08916910409F084C080E089
:1013E0000E94E00467E771E081EB93E00E94AB05A7
:1013F00081E00E94E00469E871E081EB93E00E94E3
:10140000AB0561E082E00E941402D0937602C093A3
:10141000750260ED77E080E090E00E94A30260E05A
:1014200082E00E94140281E00E94E00464E971E01D
:1014300081EB93E00E94AB0561E083E00E9414021F
:1014400090927602809275020E94C50560ED77E069
:1014500080E090E00E94A30260E083E00E9414021A
:1014600081E00E94E00465EA71E081EB93E00E9474
:10147000AB0561E084E00E941402F0927602E092F3
:1014800075020E94C50560ED77E080E090E00E9463
:10149000A30260E084E00E9414021092760210928F
:1014A00075021092780210927702809177029091E3
:1014B0007802049744F40E94D8046EEF71E081EB47
:1014C00093E00E94AB050E94C50510927D02211495
:1014D000310409F447CF0E944801882309F442CF20
:1014E0000E9400003FCF83E08816910409F053C0AA
:1014F00080E00E94E00466EB71E081EB93E00E94E3
:10150000AB0581E00E94E00469E871E081EB93E0C3
:101510000E94AB0561E082E00E941402D093760243
:10152000C093750260ED77E080E090E00E94A30236
:1015300060E082E00E94140281E00E94E00464E91D
:1015400071E081EB93E00E94AB0561E083E00E94D3
:10155000140210937602009375020E94C50560ED97
:1015600077E080E090E00E94A30260E083E00E94C8
:10157000140281E00E94E00465EA71E081EB93E0EF
:101580000E94AB0561E084E00E9414029092760212
:101590008092750276CF94E089169104D9F480E0A8
:1015A0000E94E00467EC71E081EB93E00E94AB05E0
:1015B00081E00E94E00468ED71E081EB93E00E941D
:1015C000AB0561E085E00E94140268EE73E080E004
:1015D00090E0F1CE85E088169104D9F480E00E9475
:1015E000E00461EE71E081EB93E00E94AB0581E0E5
:1015F0000E94E00469EE71E081EB93E00E94AB058C
:1016000061E086E00E941402909276028092750258
:101610004CCF96E089169104C9F460E086E00E9400
:10162000140280E00E94E00461EE71E081EB93E03F
:101630000E94AB0581E00E94E00465EF71E081EB60
:1016400093E00E94AB0561E087E0DCCF892809F0D8
:101650002CCF60E087E0BBCE2091770330917803F8
:1016600037FD35CF3327F901E255FF4F8491F9015A
:10167000E656FF4F9490F901EA57FF4F849030E00F
:1016800020E0882099F081110E94EB01E82DF0E024
:10169000EE0FFF1FE458FF4FA591B491EC919E22ED
:1016A00091E080E009F490E0292F382F40917F03EA
:1016B000509180038FB7F8948090790290907A02CD
:1016C000A0907B02B0907C028FBF8091A903909183
:1016D000AA03A091AB03B091AC0324013501481AD1
:1016E000590A6A0A7B0A8091A5039091A603823069
:1016F000910509F494C01CF50097D1F18130910552
:1017000009F0E5CE4217530709F45CC04091790314
:1017100050917A0370E060E044165506660677063D
:1017200008F03FC02091A7033091A8039093A8032D
:101730008093A7033093A6032093A503C8CE8630D9
:10174000910509F4F5C08730910509F411C1833082
:10175000910509F0BCCE4217530709F088C0909359
:10176000A8038093A703D093A603C093A50321C029
:101770004217530709F0ABCE1092A8031092A703AB
:10178000D093A603C093A5038092A9039092AA03C5
:10179000A092AB03B092AC031092AE031092AD03D3
:1017A00096CE9093A8038093A7031093A60300936B
:1017B000A5038092A9039092AA03A092AB03B092D2
:1017C000AC0385CE80917D0390917E03B0E0A0E0D4
:1017D00084159505A605B70508F079CEE091930329
:1017E000F0919403309709F00995E0919503F091F9
:1017F0009603309729F0809197039091980309956B
:101800008091A5039091A6039093A8038093A703CA
:1018100086E090E09093A6038093A50358CE809035
:10182000790390907A03B12CA12C42175307C1F48D
:10183000481459046A047B0408F474CF8091AD0302
:101840009091AE0301969093AE038093AD031093F5
:10185000A8030093A703F092A603E092A50337CE56
:10186000481459046A047B0408F431CEE7CF809110
:10187000AD039091AE0340917B0350917C0370E0E7
:1018800060E0441555056605770540F02091AF03EB
:101890003091B0038217930709F019CE813091057A
:1018A00031F5E0918103F0918203309709F00995B9
:1018B000E0918303F09184038091850390918603E6
:1018C000309741F51092A6031092A5031092A80339
:1018D0001092A7031092AE031092AD031092A903C9
:1018E0001092AA031092AB031092AC03F0CD0297B2
:1018F00099F4E0918703F0918803309709F00995F6
:10190000E0918903F0918A033097E1F280918B0393
:1019100090918C030995D6CFE0918D03F0918E03C1
:10192000309709F00995E0918F03F0919003ECCF87
:101930004217530749F09093A8038093A703D092CE
:10194000A603C092A50335CFE0919F03F091A003B9
:10195000309709F00995E091A103F091A203309727
:1019600009F4B5CD8091A3039091A4030995AFCD5F
:101970008090790390907A03B12CA12C42175307E1
:10198000C9F4481459046A047B0408F4CBCEE091EE
:101990009903F0919A03309709F00995E0919B0320
:1019A000F0919C0380919D0390919E03309709F0E4
:1019B000B1CF88CF481459046A047B0408F487CD5A
:1019C000E6CFA1E21A2EAA1BBB1BFD010DC0AA1F68
:1019D000BB1FEE1FFF1FA217B307E407F50720F098
:1019E000A21BB30BE40BF50B661F771F881F991F13
:1019F0001A9469F760957095809590959B01AC015C
:101A0000BD01CF010895EE0FFF1F0590F491E02D69
:061A10000994F894FFCFD9
:101A1600000000007E01DE000B01CB013C011A0133
:101A26002E010000000079044C040E052204450432
:101A36003204230400000000F904DE000E050D0543
:101A46000D0A0072656365697665643A2000736500
:101A56006E743A200057656C636F6D65204D415377
:101A66005445520057656C636F6D6520746F204D49
:101A760041535445520042555420484F4D45207716
:101A86006169742E2E2E00425554204D494E5553F1
:101A960020776169742E2E2E0070726568656174F8
:101AA600696E670065787472756465202020202051
:101AB6002020202000746172676574202020202079
:101AC60020202020200042555420504C555320778A
:101AD6006169742E2E2E0042555420504C415920D7
:101AE600776169742E2E2E0058595A20484F4D455D
:101AF600005052494E54455200494E205052494ECC
:101B060054494E4700494E205041555345005245D1
:041B160041445900ED
:00000001FF
